{
  "contractName": "Dogo",
  "abi": [
    {
      "inputs": [
        {
          "internalType": "address",
          "name": "initialOwner",
          "type": "address"
        }
      ],
      "stateMutability": "nonpayable",
      "type": "constructor"
    },
    {
      "inputs": [
        {
          "internalType": "address",
          "name": "sender",
          "type": "address"
        },
        {
          "internalType": "uint256",
          "name": "tokenId",
          "type": "uint256"
        },
        {
          "internalType": "address",
          "name": "owner",
          "type": "address"
        }
      ],
      "name": "ERC721IncorrectOwner",
      "type": "error"
    },
    {
      "inputs": [
        {
          "internalType": "address",
          "name": "operator",
          "type": "address"
        },
        {
          "internalType": "uint256",
          "name": "tokenId",
          "type": "uint256"
        }
      ],
      "name": "ERC721InsufficientApproval",
      "type": "error"
    },
    {
      "inputs": [
        {
          "internalType": "address",
          "name": "approver",
          "type": "address"
        }
      ],
      "name": "ERC721InvalidApprover",
      "type": "error"
    },
    {
      "inputs": [
        {
          "internalType": "address",
          "name": "operator",
          "type": "address"
        }
      ],
      "name": "ERC721InvalidOperator",
      "type": "error"
    },
    {
      "inputs": [
        {
          "internalType": "address",
          "name": "owner",
          "type": "address"
        }
      ],
      "name": "ERC721InvalidOwner",
      "type": "error"
    },
    {
      "inputs": [
        {
          "internalType": "address",
          "name": "receiver",
          "type": "address"
        }
      ],
      "name": "ERC721InvalidReceiver",
      "type": "error"
    },
    {
      "inputs": [
        {
          "internalType": "address",
          "name": "sender",
          "type": "address"
        }
      ],
      "name": "ERC721InvalidSender",
      "type": "error"
    },
    {
      "inputs": [
        {
          "internalType": "uint256",
          "name": "tokenId",
          "type": "uint256"
        }
      ],
      "name": "ERC721NonexistentToken",
      "type": "error"
    },
    {
      "inputs": [],
      "name": "EnforcedPause",
      "type": "error"
    },
    {
      "inputs": [],
      "name": "ExpectedPause",
      "type": "error"
    },
    {
      "inputs": [
        {
          "internalType": "address",
          "name": "owner",
          "type": "address"
        }
      ],
      "name": "OwnableInvalidOwner",
      "type": "error"
    },
    {
      "inputs": [
        {
          "internalType": "address",
          "name": "account",
          "type": "address"
        }
      ],
      "name": "OwnableUnauthorizedAccount",
      "type": "error"
    },
    {
      "anonymous": false,
      "inputs": [
        {
          "indexed": true,
          "internalType": "address",
          "name": "owner",
          "type": "address"
        },
        {
          "indexed": true,
          "internalType": "address",
          "name": "approved",
          "type": "address"
        },
        {
          "indexed": true,
          "internalType": "uint256",
          "name": "tokenId",
          "type": "uint256"
        }
      ],
      "name": "Approval",
      "type": "event"
    },
    {
      "anonymous": false,
      "inputs": [
        {
          "indexed": true,
          "internalType": "address",
          "name": "owner",
          "type": "address"
        },
        {
          "indexed": true,
          "internalType": "address",
          "name": "operator",
          "type": "address"
        },
        {
          "indexed": false,
          "internalType": "bool",
          "name": "approved",
          "type": "bool"
        }
      ],
      "name": "ApprovalForAll",
      "type": "event"
    },
    {
      "anonymous": false,
      "inputs": [
        {
          "indexed": true,
          "internalType": "address",
          "name": "previousOwner",
          "type": "address"
        },
        {
          "indexed": true,
          "internalType": "address",
          "name": "newOwner",
          "type": "address"
        }
      ],
      "name": "OwnershipTransferred",
      "type": "event"
    },
    {
      "anonymous": false,
      "inputs": [
        {
          "indexed": false,
          "internalType": "address",
          "name": "account",
          "type": "address"
        }
      ],
      "name": "Paused",
      "type": "event"
    },
    {
      "anonymous": false,
      "inputs": [
        {
          "indexed": true,
          "internalType": "address",
          "name": "from",
          "type": "address"
        },
        {
          "indexed": true,
          "internalType": "address",
          "name": "to",
          "type": "address"
        },
        {
          "indexed": true,
          "internalType": "uint256",
          "name": "tokenId",
          "type": "uint256"
        }
      ],
      "name": "Transfer",
      "type": "event"
    },
    {
      "anonymous": false,
      "inputs": [
        {
          "indexed": false,
          "internalType": "address",
          "name": "account",
          "type": "address"
        }
      ],
      "name": "Unpaused",
      "type": "event"
    },
    {
      "inputs": [
        {
          "internalType": "address",
          "name": "to",
          "type": "address"
        },
        {
          "internalType": "uint256",
          "name": "tokenId",
          "type": "uint256"
        }
      ],
      "name": "approve",
      "outputs": [],
      "stateMutability": "nonpayable",
      "type": "function"
    },
    {
      "inputs": [
        {
          "internalType": "address",
          "name": "owner",
          "type": "address"
        }
      ],
      "name": "balanceOf",
      "outputs": [
        {
          "internalType": "uint256",
          "name": "",
          "type": "uint256"
        }
      ],
      "stateMutability": "view",
      "type": "function"
    },
    {
      "inputs": [
        {
          "internalType": "uint256",
          "name": "tokenId",
          "type": "uint256"
        }
      ],
      "name": "burn",
      "outputs": [],
      "stateMutability": "nonpayable",
      "type": "function"
    },
    {
      "inputs": [
        {
          "internalType": "uint256",
          "name": "tokenId",
          "type": "uint256"
        }
      ],
      "name": "getApproved",
      "outputs": [
        {
          "internalType": "address",
          "name": "",
          "type": "address"
        }
      ],
      "stateMutability": "view",
      "type": "function"
    },
    {
      "inputs": [
        {
          "internalType": "address",
          "name": "owner",
          "type": "address"
        },
        {
          "internalType": "address",
          "name": "operator",
          "type": "address"
        }
      ],
      "name": "isApprovedForAll",
      "outputs": [
        {
          "internalType": "bool",
          "name": "",
          "type": "bool"
        }
      ],
      "stateMutability": "view",
      "type": "function"
    },
    {
      "inputs": [],
      "name": "name",
      "outputs": [
        {
          "internalType": "string",
          "name": "",
          "type": "string"
        }
      ],
      "stateMutability": "view",
      "type": "function"
    },
    {
      "inputs": [],
      "name": "owner",
      "outputs": [
        {
          "internalType": "address",
          "name": "",
          "type": "address"
        }
      ],
      "stateMutability": "view",
      "type": "function"
    },
    {
      "inputs": [
        {
          "internalType": "uint256",
          "name": "tokenId",
          "type": "uint256"
        }
      ],
      "name": "ownerOf",
      "outputs": [
        {
          "internalType": "address",
          "name": "",
          "type": "address"
        }
      ],
      "stateMutability": "view",
      "type": "function"
    },
    {
      "inputs": [],
      "name": "paused",
      "outputs": [
        {
          "internalType": "bool",
          "name": "",
          "type": "bool"
        }
      ],
      "stateMutability": "view",
      "type": "function"
    },
    {
      "inputs": [],
      "name": "renounceOwnership",
      "outputs": [],
      "stateMutability": "nonpayable",
      "type": "function"
    },
    {
      "inputs": [
        {
          "internalType": "address",
          "name": "from",
          "type": "address"
        },
        {
          "internalType": "address",
          "name": "to",
          "type": "address"
        },
        {
          "internalType": "uint256",
          "name": "tokenId",
          "type": "uint256"
        }
      ],
      "name": "safeTransferFrom",
      "outputs": [],
      "stateMutability": "nonpayable",
      "type": "function"
    },
    {
      "inputs": [
        {
          "internalType": "address",
          "name": "from",
          "type": "address"
        },
        {
          "internalType": "address",
          "name": "to",
          "type": "address"
        },
        {
          "internalType": "uint256",
          "name": "tokenId",
          "type": "uint256"
        },
        {
          "internalType": "bytes",
          "name": "data",
          "type": "bytes"
        }
      ],
      "name": "safeTransferFrom",
      "outputs": [],
      "stateMutability": "nonpayable",
      "type": "function"
    },
    {
      "inputs": [
        {
          "internalType": "address",
          "name": "operator",
          "type": "address"
        },
        {
          "internalType": "bool",
          "name": "approved",
          "type": "bool"
        }
      ],
      "name": "setApprovalForAll",
      "outputs": [],
      "stateMutability": "nonpayable",
      "type": "function"
    },
    {
      "inputs": [
        {
          "internalType": "bytes4",
          "name": "interfaceId",
          "type": "bytes4"
        }
      ],
      "name": "supportsInterface",
      "outputs": [
        {
          "internalType": "bool",
          "name": "",
          "type": "bool"
        }
      ],
      "stateMutability": "view",
      "type": "function"
    },
    {
      "inputs": [],
      "name": "symbol",
      "outputs": [
        {
          "internalType": "string",
          "name": "",
          "type": "string"
        }
      ],
      "stateMutability": "view",
      "type": "function"
    },
    {
      "inputs": [
        {
          "internalType": "uint256",
          "name": "tokenId",
          "type": "uint256"
        }
      ],
      "name": "tokenURI",
      "outputs": [
        {
          "internalType": "string",
          "name": "",
          "type": "string"
        }
      ],
      "stateMutability": "view",
      "type": "function"
    },
    {
      "inputs": [
        {
          "internalType": "address",
          "name": "from",
          "type": "address"
        },
        {
          "internalType": "address",
          "name": "to",
          "type": "address"
        },
        {
          "internalType": "uint256",
          "name": "tokenId",
          "type": "uint256"
        }
      ],
      "name": "transferFrom",
      "outputs": [],
      "stateMutability": "nonpayable",
      "type": "function"
    },
    {
      "inputs": [
        {
          "internalType": "address",
          "name": "newOwner",
          "type": "address"
        }
      ],
      "name": "transferOwnership",
      "outputs": [],
      "stateMutability": "nonpayable",
      "type": "function"
    },
    {
      "inputs": [],
      "name": "pause",
      "outputs": [],
      "stateMutability": "nonpayable",
      "type": "function"
    },
    {
      "inputs": [],
      "name": "unpause",
      "outputs": [],
      "stateMutability": "nonpayable",
      "type": "function"
    },
    {
      "inputs": [
        {
          "internalType": "address",
          "name": "to",
          "type": "address"
        }
      ],
      "name": "safeMint",
      "outputs": [],
      "stateMutability": "nonpayable",
      "type": "function"
    }
  ],
  "bytecode": "0x608060405234801562000010575f80fd5b506040516200292938038062002929833981810160405281019062000036919062000297565b806040518060400160405280600481526020017f646f676f000000000000000000000000000000000000000000000000000000008152506040518060400160405280600581526020017f6375746965000000000000000000000000000000000000000000000000000000815250815f9081620000b391906200052b565b508060019081620000c591906200052b565b5050505f60065f6101000a81548160ff0219169083151502179055505f73ffffffffffffffffffffffffffffffffffffffff168173ffffffffffffffffffffffffffffffffffffffff160362000154575f6040517f1e4fbdf70000000000000000000000000000000000000000000000000000000081526004016200014b919062000620565b60405180910390fd5b62000165816200016d60201b60201c565b50506200063b565b5f600660019054906101000a900473ffffffffffffffffffffffffffffffffffffffff16905081600660016101000a81548173ffffffffffffffffffffffffffffffffffffffff021916908373ffffffffffffffffffffffffffffffffffffffff1602179055508173ffffffffffffffffffffffffffffffffffffffff168173ffffffffffffffffffffffffffffffffffffffff167f8be0079c531659141344cd1fd0a4f28419497f9722a3daafe3b4186f6b6457e060405160405180910390a35050565b5f80fd5b5f73ffffffffffffffffffffffffffffffffffffffff82169050919050565b5f620002618262000236565b9050919050565b620002738162000255565b81146200027e575f80fd5b50565b5f81519050620002918162000268565b92915050565b5f60208284031215620002af57620002ae62000232565b5b5f620002be8482850162000281565b91505092915050565b5f81519050919050565b7f4e487b71000000000000000000000000000000000000000000000000000000005f52604160045260245ffd5b7f4e487b71000000000000000000000000000000000000000000000000000000005f52602260045260245ffd5b5f60028204905060018216806200034357607f821691505b602082108103620003595762000358620002fe565b5b50919050565b5f819050815f5260205f209050919050565b5f6020601f8301049050919050565b5f82821b905092915050565b5f60088302620003bd7fffffffffffffffffffffffffffffffffffffffffffffffffffffffffffffffff8262000380565b620003c9868362000380565b95508019841693508086168417925050509392505050565b5f819050919050565b5f819050919050565b5f620004136200040d6200040784620003e1565b620003ea565b620003e1565b9050919050565b5f819050919050565b6200042e83620003f3565b620004466200043d826200041a565b8484546200038c565b825550505050565b5f90565b6200045c6200044e565b6200046981848462000423565b505050565b5b818110156200049057620004845f8262000452565b6001810190506200046f565b5050565b601f821115620004df57620004a9816200035f565b620004b48462000371565b81016020851015620004c4578190505b620004dc620004d38562000371565b8301826200046e565b50505b505050565b5f82821c905092915050565b5f620005015f1984600802620004e4565b1980831691505092915050565b5f6200051b8383620004f0565b9150826002028217905092915050565b6200053682620002c7565b67ffffffffffffffff811115620005525762000551620002d1565b5b6200055e82546200032b565b6200056b82828562000494565b5f60209050601f831160018114620005a1575f84156200058c578287015190505b6200059885826200050e565b86555062000607565b601f198416620005b1866200035f565b5f5b82811015620005da57848901518255600182019150602085019450602081019050620005b3565b86831015620005fa5784890151620005f6601f891682620004f0565b8355505b6001600288020188555050505b505050505050565b6200061a8162000255565b82525050565b5f602082019050620006355f8301846200060f565b92915050565b6122e080620006495f395ff3fe608060405234801561000f575f80fd5b5060043610610135575f3560e01c80636352211e116100b657806395d89b411161007a57806395d89b41146102fd578063a22cb4651461031b578063b88d4fde14610337578063c87b56dd14610353578063e985e9c514610383578063f2fde38b146103b357610135565b80636352211e1461026b57806370a082311461029b578063715018a6146102cb5780638456cb59146102d55780638da5cb5b146102df57610135565b80633f4ba83a116100fd5780633f4ba83a146101ef57806340d097c3146101f957806342842e0e1461021557806342966c68146102315780635c975abb1461024d57610135565b806301ffc9a71461013957806306fdde0314610169578063081812fc14610187578063095ea7b3146101b757806323b872dd146101d3575b5f80fd5b610153600480360381019061014e9190611aba565b6103cf565b6040516101609190611aff565b60405180910390f35b6101716104b0565b60405161017e9190611ba2565b60405180910390f35b6101a1600480360381019061019c9190611bf5565b61053f565b6040516101ae9190611c5f565b60405180910390f35b6101d160048036038101906101cc9190611ca2565b61055a565b005b6101ed60048036038101906101e89190611ce0565b610570565b005b6101f761066f565b005b610213600480360381019061020e9190611d30565b610681565b005b61022f600480360381019061022a9190611ce0565b6106b0565b005b61024b60048036038101906102469190611bf5565b6106cf565b005b6102556106e5565b6040516102629190611aff565b60405180910390f35b61028560048036038101906102809190611bf5565b6106fa565b6040516102929190611c5f565b60405180910390f35b6102b560048036038101906102b09190611d30565b61070b565b6040516102c29190611d6a565b60405180910390f35b6102d36107c1565b005b6102dd6107d4565b005b6102e76107e6565b6040516102f49190611c5f565b60405180910390f35b61030561080f565b6040516103129190611ba2565b60405180910390f35b61033560048036038101906103309190611dad565b61089f565b005b610351600480360381019061034c9190611f17565b6108b5565b005b61036d60048036038101906103689190611bf5565b6108d2565b60405161037a9190611ba2565b60405180910390f35b61039d60048036038101906103989190611f97565b610938565b6040516103aa9190611aff565b60405180910390f35b6103cd60048036038101906103c89190611d30565b6109c6565b005b5f7f80ac58cd000000000000000000000000000000000000000000000000000000007bffffffffffffffffffffffffffffffffffffffffffffffffffffffff1916827bffffffffffffffffffffffffffffffffffffffffffffffffffffffff1916148061049957507f5b5e139f000000000000000000000000000000000000000000000000000000007bffffffffffffffffffffffffffffffffffffffffffffffffffffffff1916827bffffffffffffffffffffffffffffffffffffffffffffffffffffffff1916145b806104a957506104a882610a4a565b5b9050919050565b60605f80546104be90612002565b80601f01602080910402602001604051908101604052809291908181526020018280546104ea90612002565b80156105355780601f1061050c57610100808354040283529160200191610535565b820191905f5260205f20905b81548152906001019060200180831161051857829003601f168201915b5050505050905090565b5f61054982610ab3565b5061055382610b39565b9050919050565b61056c8282610567610b72565b610b79565b5050565b5f73ffffffffffffffffffffffffffffffffffffffff168273ffffffffffffffffffffffffffffffffffffffff16036105e0575f6040517f64a0ae920000000000000000000000000000000000000000000000000000000081526004016105d79190611c5f565b60405180910390fd5b5f6105f383836105ee610b72565b610b8b565b90508373ffffffffffffffffffffffffffffffffffffffff168173ffffffffffffffffffffffffffffffffffffffff1614610669578382826040517f64283d7b00000000000000000000000000000000000000000000000000000000815260040161066093929190612032565b60405180910390fd5b50505050565b610677610ba0565b61067f610c27565b565b610689610ba0565b5f60075f81548092919061069c90612094565b9190505590506106ac8282610c88565b5050565b6106ca83838360405180602001604052805f8152506108b5565b505050565b6106e15f826106dc610b72565b610b8b565b5050565b5f60065f9054906101000a900460ff16905090565b5f61070482610ab3565b9050919050565b5f8073ffffffffffffffffffffffffffffffffffffffff168273ffffffffffffffffffffffffffffffffffffffff160361077c575f6040517f89c62b640000000000000000000000000000000000000000000000000000000081526004016107739190611c5f565b60405180910390fd5b60035f8373ffffffffffffffffffffffffffffffffffffffff1673ffffffffffffffffffffffffffffffffffffffff1681526020019081526020015f20549050919050565b6107c9610ba0565b6107d25f610ca5565b565b6107dc610ba0565b6107e4610d6a565b565b5f600660019054906101000a900473ffffffffffffffffffffffffffffffffffffffff16905090565b60606001805461081e90612002565b80601f016020809104026020016040519081016040528092919081815260200182805461084a90612002565b80156108955780601f1061086c57610100808354040283529160200191610895565b820191905f5260205f20905b81548152906001019060200180831161087857829003601f168201915b5050505050905090565b6108b16108aa610b72565b8383610dcc565b5050565b6108c0848484610570565b6108cc84848484610f35565b50505050565b60606108dd82610ab3565b505f6108e76110e7565b90505f8151116109055760405180602001604052805f815250610930565b8061090f84611107565b604051602001610920929190612115565b6040516020818303038152906040525b915050919050565b5f60055f8473ffffffffffffffffffffffffffffffffffffffff1673ffffffffffffffffffffffffffffffffffffffff1681526020019081526020015f205f8373ffffffffffffffffffffffffffffffffffffffff1673ffffffffffffffffffffffffffffffffffffffff1681526020019081526020015f205f9054906101000a900460ff16905092915050565b6109ce610ba0565b5f73ffffffffffffffffffffffffffffffffffffffff168173ffffffffffffffffffffffffffffffffffffffff1603610a3e575f6040517f1e4fbdf7000000000000000000000000000000000000000000000000000000008152600401610a359190611c5f565b60405180910390fd5b610a4781610ca5565b50565b5f7f01ffc9a7000000000000000000000000000000000000000000000000000000007bffffffffffffffffffffffffffffffffffffffffffffffffffffffff1916827bffffffffffffffffffffffffffffffffffffffffffffffffffffffff1916149050919050565b5f80610abe836111d1565b90505f73ffffffffffffffffffffffffffffffffffffffff168173ffffffffffffffffffffffffffffffffffffffff1603610b3057826040517f7e273289000000000000000000000000000000000000000000000000000000008152600401610b279190611d6a565b60405180910390fd5b80915050919050565b5f60045f8381526020019081526020015f205f9054906101000a900473ffffffffffffffffffffffffffffffffffffffff169050919050565b5f33905090565b610b86838383600161120a565b505050565b5f610b978484846113c9565b90509392505050565b610ba8610b72565b73ffffffffffffffffffffffffffffffffffffffff16610bc66107e6565b73ffffffffffffffffffffffffffffffffffffffff1614610c2557610be9610b72565b6040517f118cdaa7000000000000000000000000000000000000000000000000000000008152600401610c1c9190611c5f565b60405180910390fd5b565b610c2f6113e6565b5f60065f6101000a81548160ff0219169083151502179055507f5db9ee0a495bf2e6ff9c91a7834c1ba4fdd244a5e8aa4e537bd38aeae4b073aa610c71610b72565b604051610c7e9190611c5f565b60405180910390a1565b610ca1828260405180602001604052805f815250611426565b5050565b5f600660019054906101000a900473ffffffffffffffffffffffffffffffffffffffff16905081600660016101000a81548173ffffffffffffffffffffffffffffffffffffffff021916908373ffffffffffffffffffffffffffffffffffffffff1602179055508173ffffffffffffffffffffffffffffffffffffffff168173ffffffffffffffffffffffffffffffffffffffff167f8be0079c531659141344cd1fd0a4f28419497f9722a3daafe3b4186f6b6457e060405160405180910390a35050565b610d72611441565b600160065f6101000a81548160ff0219169083151502179055507f62e78cea01bee320cd4e420270b5ea74000d11b0c9f74754ebdbfc544b05a258610db5610b72565b604051610dc29190611c5f565b60405180910390a1565b5f73ffffffffffffffffffffffffffffffffffffffff168273ffffffffffffffffffffffffffffffffffffffff1603610e3c57816040517f5b08ba18000000000000000000000000000000000000000000000000000000008152600401610e339190611c5f565b60405180910390fd5b8060055f8573ffffffffffffffffffffffffffffffffffffffff1673ffffffffffffffffffffffffffffffffffffffff1681526020019081526020015f205f8473ffffffffffffffffffffffffffffffffffffffff1673ffffffffffffffffffffffffffffffffffffffff1681526020019081526020015f205f6101000a81548160ff0219169083151502179055508173ffffffffffffffffffffffffffffffffffffffff168373ffffffffffffffffffffffffffffffffffffffff167f17307eab39ab6107e8899845ad3d59bd9653f200f220920489ca2b5937696c3183604051610f289190611aff565b60405180910390a3505050565b5f8373ffffffffffffffffffffffffffffffffffffffff163b11156110e1578273ffffffffffffffffffffffffffffffffffffffff1663150b7a02610f78610b72565b8685856040518563ffffffff1660e01b8152600401610f9a949392919061218a565b6020604051808303815f875af1925050508015610fd557506040513d601f19601f82011682018060405250810190610fd291906121e8565b60015b611056573d805f8114611003576040519150601f19603f3d011682016040523d82523d5f602084013e611008565b606091505b505f81510361104e57836040517f64a0ae920000000000000000000000000000000000000000000000000000000081526004016110459190611c5f565b60405180910390fd5b805181602001fd5b63150b7a0260e01b7bffffffffffffffffffffffffffffffffffffffffffffffffffffffff1916817bffffffffffffffffffffffffffffffffffffffffffffffffffffffff1916146110df57836040517f64a0ae920000000000000000000000000000000000000000000000000000000081526004016110d69190611c5f565b60405180910390fd5b505b50505050565b606060405180608001604052806043815260200161226860439139905090565b60605f600161111584611482565b0190505f8167ffffffffffffffff81111561113357611132611df3565b5b6040519080825280601f01601f1916602001820160405280156111655781602001600182028036833780820191505090505b5090505f82602001820190505b6001156111c6578080600190039150507f3031323334353637383961626364656600000000000000000000000000000000600a86061a8153600a85816111bb576111ba612213565b5b0494505f8503611172575b819350505050919050565b5f60025f8381526020019081526020015f205f9054906101000a900473ffffffffffffffffffffffffffffffffffffffff169050919050565b808061124257505f73ffffffffffffffffffffffffffffffffffffffff168273ffffffffffffffffffffffffffffffffffffffff1614155b15611374575f61125184610ab3565b90505f73ffffffffffffffffffffffffffffffffffffffff168373ffffffffffffffffffffffffffffffffffffffff16141580156112bb57508273ffffffffffffffffffffffffffffffffffffffff168173ffffffffffffffffffffffffffffffffffffffff1614155b80156112ce57506112cc8184610938565b155b1561131057826040517fa9fbf51f0000000000000000000000000000000000000000000000000000000081526004016113079190611c5f565b60405180910390fd5b811561137257838573ffffffffffffffffffffffffffffffffffffffff168273ffffffffffffffffffffffffffffffffffffffff167f8c5be1e5ebec7d5bd14f71427d1e84f3dd0314c0f7b2291e5b200ac8c7c3b92560405160405180910390a45b505b8360045f8581526020019081526020015f205f6101000a81548173ffffffffffffffffffffffffffffffffffffffff021916908373ffffffffffffffffffffffffffffffffffffffff16021790555050505050565b5f6113d2611441565b6113dd8484846115d3565b90509392505050565b6113ee6106e5565b611424576040517f8dfc202b00000000000000000000000000000000000000000000000000000000815260040160405180910390fd5b565b61143083836117de565b61143c5f848484610f35565b505050565b6114496106e5565b15611480576040517fd93c066500000000000000000000000000000000000000000000000000000000815260040160405180910390fd5b565b5f805f90507a184f03e93ff9f4daa797ed6e38ed64bf6a1f01000000000000000083106114de577a184f03e93ff9f4daa797ed6e38ed64bf6a1f01000000000000000083816114d4576114d3612213565b5b0492506040810190505b6d04ee2d6d415b85acef8100000000831061151b576d04ee2d6d415b85acef8100000000838161151157611510612213565b5b0492506020810190505b662386f26fc10000831061154a57662386f26fc1000083816115405761153f612213565b5b0492506010810190505b6305f5e1008310611573576305f5e100838161156957611568612213565b5b0492506008810190505b612710831061159857612710838161158e5761158d612213565b5b0492506004810190505b606483106115bb57606483816115b1576115b0612213565b5b0492506002810190505b600a83106115ca576001810190505b80915050919050565b5f806115de846111d1565b90505f73ffffffffffffffffffffffffffffffffffffffff168373ffffffffffffffffffffffffffffffffffffffff161461161f5761161e8184866118d1565b5b5f73ffffffffffffffffffffffffffffffffffffffff168173ffffffffffffffffffffffffffffffffffffffff16146116aa5761165e5f855f8061120a565b600160035f8373ffffffffffffffffffffffffffffffffffffffff1673ffffffffffffffffffffffffffffffffffffffff1681526020019081526020015f205f82825403925050819055505b5f73ffffffffffffffffffffffffffffffffffffffff168573ffffffffffffffffffffffffffffffffffffffff161461172957600160035f8773ffffffffffffffffffffffffffffffffffffffff1673ffffffffffffffffffffffffffffffffffffffff1681526020019081526020015f205f82825401925050819055505b8460025f8681526020019081526020015f205f6101000a81548173ffffffffffffffffffffffffffffffffffffffff021916908373ffffffffffffffffffffffffffffffffffffffff160217905550838573ffffffffffffffffffffffffffffffffffffffff168273ffffffffffffffffffffffffffffffffffffffff167fddf252ad1be2c89b69c2b068fc378daa952ba7f163c4a11628f55a4df523b3ef60405160405180910390a4809150509392505050565b5f73ffffffffffffffffffffffffffffffffffffffff168273ffffffffffffffffffffffffffffffffffffffff160361184e575f6040517f64a0ae920000000000000000000000000000000000000000000000000000000081526004016118459190611c5f565b60405180910390fd5b5f61185a83835f610b8b565b90505f73ffffffffffffffffffffffffffffffffffffffff168173ffffffffffffffffffffffffffffffffffffffff16146118cc575f6040517f73c6ac6e0000000000000000000000000000000000000000000000000000000081526004016118c39190611c5f565b60405180910390fd5b505050565b6118dc838383611994565b61198f575f73ffffffffffffffffffffffffffffffffffffffff168373ffffffffffffffffffffffffffffffffffffffff160361195057806040517f7e2732890000000000000000000000000000000000000000000000000000000081526004016119479190611d6a565b60405180910390fd5b81816040517f177e802f000000000000000000000000000000000000000000000000000000008152600401611986929190612240565b60405180910390fd5b505050565b5f8073ffffffffffffffffffffffffffffffffffffffff168373ffffffffffffffffffffffffffffffffffffffff1614158015611a4b57508273ffffffffffffffffffffffffffffffffffffffff168473ffffffffffffffffffffffffffffffffffffffff161480611a0c5750611a0b8484610938565b5b80611a4a57508273ffffffffffffffffffffffffffffffffffffffff16611a3283610b39565b73ffffffffffffffffffffffffffffffffffffffff16145b5b90509392505050565b5f604051905090565b5f80fd5b5f80fd5b5f7fffffffff0000000000000000000000000000000000000000000000000000000082169050919050565b611a9981611a65565b8114611aa3575f80fd5b50565b5f81359050611ab481611a90565b92915050565b5f60208284031215611acf57611ace611a5d565b5b5f611adc84828501611aa6565b91505092915050565b5f8115159050919050565b611af981611ae5565b82525050565b5f602082019050611b125f830184611af0565b92915050565b5f81519050919050565b5f82825260208201905092915050565b5f5b83811015611b4f578082015181840152602081019050611b34565b5f8484015250505050565b5f601f19601f8301169050919050565b5f611b7482611b18565b611b7e8185611b22565b9350611b8e818560208601611b32565b611b9781611b5a565b840191505092915050565b5f6020820190508181035f830152611bba8184611b6a565b905092915050565b5f819050919050565b611bd481611bc2565b8114611bde575f80fd5b50565b5f81359050611bef81611bcb565b92915050565b5f60208284031215611c0a57611c09611a5d565b5b5f611c1784828501611be1565b91505092915050565b5f73ffffffffffffffffffffffffffffffffffffffff82169050919050565b5f611c4982611c20565b9050919050565b611c5981611c3f565b82525050565b5f602082019050611c725f830184611c50565b92915050565b611c8181611c3f565b8114611c8b575f80fd5b50565b5f81359050611c9c81611c78565b92915050565b5f8060408385031215611cb857611cb7611a5d565b5b5f611cc585828601611c8e565b9250506020611cd685828601611be1565b9150509250929050565b5f805f60608486031215611cf757611cf6611a5d565b5b5f611d0486828701611c8e565b9350506020611d1586828701611c8e565b9250506040611d2686828701611be1565b9150509250925092565b5f60208284031215611d4557611d44611a5d565b5b5f611d5284828501611c8e565b91505092915050565b611d6481611bc2565b82525050565b5f602082019050611d7d5f830184611d5b565b92915050565b611d8c81611ae5565b8114611d96575f80fd5b50565b5f81359050611da781611d83565b92915050565b5f8060408385031215611dc357611dc2611a5d565b5b5f611dd085828601611c8e565b9250506020611de185828601611d99565b9150509250929050565b5f80fd5b5f80fd5b7f4e487b71000000000000000000000000000000000000000000000000000000005f52604160045260245ffd5b611e2982611b5a565b810181811067ffffffffffffffff82111715611e4857611e47611df3565b5b80604052505050565b5f611e5a611a54565b9050611e668282611e20565b919050565b5f67ffffffffffffffff821115611e8557611e84611df3565b5b611e8e82611b5a565b9050602081019050919050565b828183375f83830152505050565b5f611ebb611eb684611e6b565b611e51565b905082815260208101848484011115611ed757611ed6611def565b5b611ee2848285611e9b565b509392505050565b5f82601f830112611efe57611efd611deb565b5b8135611f0e848260208601611ea9565b91505092915050565b5f805f8060808587031215611f2f57611f2e611a5d565b5b5f611f3c87828801611c8e565b9450506020611f4d87828801611c8e565b9350506040611f5e87828801611be1565b925050606085013567ffffffffffffffff811115611f7f57611f7e611a61565b5b611f8b87828801611eea565b91505092959194509250565b5f8060408385031215611fad57611fac611a5d565b5b5f611fba85828601611c8e565b9250506020611fcb85828601611c8e565b9150509250929050565b7f4e487b71000000000000000000000000000000000000000000000000000000005f52602260045260245ffd5b5f600282049050600182168061201957607f821691505b60208210810361202c5761202b611fd5565b5b50919050565b5f6060820190506120455f830186611c50565b6120526020830185611d5b565b61205f6040830184611c50565b949350505050565b7f4e487b71000000000000000000000000000000000000000000000000000000005f52601160045260245ffd5b5f61209e82611bc2565b91507fffffffffffffffffffffffffffffffffffffffffffffffffffffffffffffffff82036120d0576120cf612067565b5b600182019050919050565b5f81905092915050565b5f6120ef82611b18565b6120f981856120db565b9350612109818560208601611b32565b80840191505092915050565b5f61212082856120e5565b915061212c82846120e5565b91508190509392505050565b5f81519050919050565b5f82825260208201905092915050565b5f61215c82612138565b6121668185612142565b9350612176818560208601611b32565b61217f81611b5a565b840191505092915050565b5f60808201905061219d5f830187611c50565b6121aa6020830186611c50565b6121b76040830185611d5b565b81810360608301526121c98184612152565b905095945050505050565b5f815190506121e281611a90565b92915050565b5f602082840312156121fd576121fc611a5d565b5b5f61220a848285016121d4565b91505092915050565b7f4e487b71000000000000000000000000000000000000000000000000000000005f52601260045260245ffd5b5f6040820190506122535f830185611c50565b6122606020830184611d5b565b939250505056fe68747470733a2f2f697066732e696f2f697066732f516d506f686b41363878464274537339623158444a47564533394c58425a5245394559354c64516f345547314752a26469706673582212200f7fc9acceb4c30715533cfb1bde3d336f79ba2cb97866556298d76ff60fbfae64736f6c63430008140033",
  "immutableReferences": {},
  "source": "// SPDX-License-Identifier: MIT\npragma solidity ^0.8.20;\n\nimport \"@openzeppelin/contracts/token/ERC721/ERC721.sol\";\nimport \"@openzeppelin/contracts/token/ERC721/extensions/ERC721Pausable.sol\";\nimport \"@openzeppelin/contracts/access/Ownable.sol\";\nimport \"@openzeppelin/contracts/token/ERC721/extensions/ERC721Burnable.sol\";\n\ncontract Dogo is ERC721, ERC721Pausable, Ownable, ERC721Burnable {\n    uint256 private _nextTokenId;\n\n    constructor(address initialOwner)\n        ERC721(\"dogo\", \"cutie\")\n        Ownable(initialOwner)\n    {}\n\n    function _baseURI() internal pure override returns (string memory) {\n        return \"https://ipfs.io/ipfs/QmPohkA68xFBtSs9b1XDJGVE39LXBZRE9EY5LdQo4UG1GR\";\n    }\n\n    function pause() public onlyOwner {\n        _pause();\n    }\n\n    function unpause() public onlyOwner {\n        _unpause();\n    }\n\n    function safeMint(address to) public onlyOwner {\n        uint256 tokenId = _nextTokenId++;\n        _safeMint(to, tokenId);\n    }\n\n    // The following functions are overrides required by Solidity.\n\n    function _update(address to, uint256 tokenId, address auth)\n        internal\n        override(ERC721, ERC721Pausable)\n        returns (address)\n    {\n        return super._update(to, tokenId, auth);\n    }\n}",
  "sourcePath": "D:\\HackCBS\\tuffle\\contracts\\HelloWorld.sol",
  "compiler": {
    "name": "solc",
    "version": "0.8.20+commit.a1b79de6.Emscripten.clang"
  },
  "schemaVersion": "3.4.16",
  "updatedAt": "2023-11-05T03:04:12.777Z",
  "devdoc": {
    "errors": {
      "ERC721IncorrectOwner(address,uint256,address)": [
        {
          "details": "Indicates an error related to the ownership over a particular token. Used in transfers.",
          "params": {
            "owner": "Address of the current owner of a token.",
            "sender": "Address whose tokens are being transferred.",
            "tokenId": "Identifier number of a token."
          }
        }
      ],
      "ERC721InsufficientApproval(address,uint256)": [
        {
          "details": "Indicates a failure with the `operator`s approval. Used in transfers.",
          "params": {
            "operator": "Address that may be allowed to operate on tokens without being their owner.",
            "tokenId": "Identifier number of a token."
          }
        }
      ],
      "ERC721InvalidApprover(address)": [
        {
          "details": "Indicates a failure with the `approver` of a token to be approved. Used in approvals.",
          "params": {
            "approver": "Address initiating an approval operation."
          }
        }
      ],
      "ERC721InvalidOperator(address)": [
        {
          "details": "Indicates a failure with the `operator` to be approved. Used in approvals.",
          "params": {
            "operator": "Address that may be allowed to operate on tokens without being their owner."
          }
        }
      ],
      "ERC721InvalidOwner(address)": [
        {
          "details": "Indicates that an address can't be an owner. For example, `address(0)` is a forbidden owner in EIP-20. Used in balance queries.",
          "params": {
            "owner": "Address of the current owner of a token."
          }
        }
      ],
      "ERC721InvalidReceiver(address)": [
        {
          "details": "Indicates a failure with the token `receiver`. Used in transfers.",
          "params": {
            "receiver": "Address to which tokens are being transferred."
          }
        }
      ],
      "ERC721InvalidSender(address)": [
        {
          "details": "Indicates a failure with the token `sender`. Used in transfers.",
          "params": {
            "sender": "Address whose tokens are being transferred."
          }
        }
      ],
      "ERC721NonexistentToken(uint256)": [
        {
          "details": "Indicates a `tokenId` whose `owner` is the zero address.",
          "params": {
            "tokenId": "Identifier number of a token."
          }
        }
      ],
      "EnforcedPause()": [
        {
          "details": "The operation failed because the contract is paused."
        }
      ],
      "ExpectedPause()": [
        {
          "details": "The operation failed because the contract is not paused."
        }
      ],
      "OwnableInvalidOwner(address)": [
        {
          "details": "The owner is not a valid owner account. (eg. `address(0)`)"
        }
      ],
      "OwnableUnauthorizedAccount(address)": [
        {
          "details": "The caller account is not authorized to perform an operation."
        }
      ]
    },
    "events": {
      "Approval(address,address,uint256)": {
        "details": "Emitted when `owner` enables `approved` to manage the `tokenId` token."
      },
      "ApprovalForAll(address,address,bool)": {
        "details": "Emitted when `owner` enables or disables (`approved`) `operator` to manage all of its assets."
      },
      "Paused(address)": {
        "details": "Emitted when the pause is triggered by `account`."
      },
      "Transfer(address,address,uint256)": {
        "details": "Emitted when `tokenId` token is transferred from `from` to `to`."
      },
      "Unpaused(address)": {
        "details": "Emitted when the pause is lifted by `account`."
      }
    },
    "kind": "dev",
    "methods": {
      "approve(address,uint256)": {
        "details": "See {IERC721-approve}."
      },
      "balanceOf(address)": {
        "details": "See {IERC721-balanceOf}."
      },
      "burn(uint256)": {
        "details": "Burns `tokenId`. See {ERC721-_burn}. Requirements: - The caller must own `tokenId` or be an approved operator."
      },
      "getApproved(uint256)": {
        "details": "See {IERC721-getApproved}."
      },
      "isApprovedForAll(address,address)": {
        "details": "See {IERC721-isApprovedForAll}."
      },
      "name()": {
        "details": "See {IERC721Metadata-name}."
      },
      "owner()": {
        "details": "Returns the address of the current owner."
      },
      "ownerOf(uint256)": {
        "details": "See {IERC721-ownerOf}."
      },
      "paused()": {
        "details": "Returns true if the contract is paused, and false otherwise."
      },
      "renounceOwnership()": {
        "details": "Leaves the contract without owner. It will not be possible to call `onlyOwner` functions. Can only be called by the current owner. NOTE: Renouncing ownership will leave the contract without an owner, thereby disabling any functionality that is only available to the owner."
      },
      "safeTransferFrom(address,address,uint256)": {
        "details": "See {IERC721-safeTransferFrom}."
      },
      "safeTransferFrom(address,address,uint256,bytes)": {
        "details": "See {IERC721-safeTransferFrom}."
      },
      "setApprovalForAll(address,bool)": {
        "details": "See {IERC721-setApprovalForAll}."
      },
      "supportsInterface(bytes4)": {
        "details": "See {IERC165-supportsInterface}."
      },
      "symbol()": {
        "details": "See {IERC721Metadata-symbol}."
      },
      "tokenURI(uint256)": {
        "details": "See {IERC721Metadata-tokenURI}."
      },
      "transferFrom(address,address,uint256)": {
        "details": "See {IERC721-transferFrom}."
      },
      "transferOwnership(address)": {
        "details": "Transfers ownership of the contract to a new account (`newOwner`). Can only be called by the current owner."
      }
    },
    "version": 1
  },
  "userdoc": {
    "kind": "user",
    "methods": {},
    "version": 1
  }
}