{
  "contractName": "Mydog",
  "abi": [
    {
      "inputs": [],
      "stateMutability": "nonpayable",
      "type": "constructor"
    },
    {
      "inputs": [],
      "name": "ERC721EnumerableForbiddenBatchMint",
      "type": "error"
    },
    {
      "inputs": [
        {
          "internalType": "address",
          "name": "sender",
          "type": "address"
        },
        {
          "internalType": "uint256",
          "name": "tokenId",
          "type": "uint256"
        },
        {
          "internalType": "address",
          "name": "owner",
          "type": "address"
        }
      ],
      "name": "ERC721IncorrectOwner",
      "type": "error"
    },
    {
      "inputs": [
        {
          "internalType": "address",
          "name": "operator",
          "type": "address"
        },
        {
          "internalType": "uint256",
          "name": "tokenId",
          "type": "uint256"
        }
      ],
      "name": "ERC721InsufficientApproval",
      "type": "error"
    },
    {
      "inputs": [
        {
          "internalType": "address",
          "name": "approver",
          "type": "address"
        }
      ],
      "name": "ERC721InvalidApprover",
      "type": "error"
    },
    {
      "inputs": [
        {
          "internalType": "address",
          "name": "operator",
          "type": "address"
        }
      ],
      "name": "ERC721InvalidOperator",
      "type": "error"
    },
    {
      "inputs": [
        {
          "internalType": "address",
          "name": "owner",
          "type": "address"
        }
      ],
      "name": "ERC721InvalidOwner",
      "type": "error"
    },
    {
      "inputs": [
        {
          "internalType": "address",
          "name": "receiver",
          "type": "address"
        }
      ],
      "name": "ERC721InvalidReceiver",
      "type": "error"
    },
    {
      "inputs": [
        {
          "internalType": "address",
          "name": "sender",
          "type": "address"
        }
      ],
      "name": "ERC721InvalidSender",
      "type": "error"
    },
    {
      "inputs": [
        {
          "internalType": "uint256",
          "name": "tokenId",
          "type": "uint256"
        }
      ],
      "name": "ERC721NonexistentToken",
      "type": "error"
    },
    {
      "inputs": [
        {
          "internalType": "address",
          "name": "owner",
          "type": "address"
        },
        {
          "internalType": "uint256",
          "name": "index",
          "type": "uint256"
        }
      ],
      "name": "ERC721OutOfBoundsIndex",
      "type": "error"
    },
    {
      "inputs": [],
      "name": "EnforcedPause",
      "type": "error"
    },
    {
      "inputs": [],
      "name": "ExpectedPause",
      "type": "error"
    },
    {
      "inputs": [
        {
          "internalType": "address",
          "name": "owner",
          "type": "address"
        }
      ],
      "name": "OwnableInvalidOwner",
      "type": "error"
    },
    {
      "inputs": [
        {
          "internalType": "address",
          "name": "account",
          "type": "address"
        }
      ],
      "name": "OwnableUnauthorizedAccount",
      "type": "error"
    },
    {
      "anonymous": false,
      "inputs": [
        {
          "indexed": true,
          "internalType": "address",
          "name": "owner",
          "type": "address"
        },
        {
          "indexed": true,
          "internalType": "address",
          "name": "approved",
          "type": "address"
        },
        {
          "indexed": true,
          "internalType": "uint256",
          "name": "tokenId",
          "type": "uint256"
        }
      ],
      "name": "Approval",
      "type": "event"
    },
    {
      "anonymous": false,
      "inputs": [
        {
          "indexed": true,
          "internalType": "address",
          "name": "owner",
          "type": "address"
        },
        {
          "indexed": true,
          "internalType": "address",
          "name": "operator",
          "type": "address"
        },
        {
          "indexed": false,
          "internalType": "bool",
          "name": "approved",
          "type": "bool"
        }
      ],
      "name": "ApprovalForAll",
      "type": "event"
    },
    {
      "anonymous": false,
      "inputs": [
        {
          "indexed": true,
          "internalType": "address",
          "name": "previousOwner",
          "type": "address"
        },
        {
          "indexed": true,
          "internalType": "address",
          "name": "newOwner",
          "type": "address"
        }
      ],
      "name": "OwnershipTransferred",
      "type": "event"
    },
    {
      "anonymous": false,
      "inputs": [
        {
          "indexed": false,
          "internalType": "address",
          "name": "account",
          "type": "address"
        }
      ],
      "name": "Paused",
      "type": "event"
    },
    {
      "anonymous": false,
      "inputs": [
        {
          "indexed": true,
          "internalType": "address",
          "name": "from",
          "type": "address"
        },
        {
          "indexed": true,
          "internalType": "address",
          "name": "to",
          "type": "address"
        },
        {
          "indexed": true,
          "internalType": "uint256",
          "name": "tokenId",
          "type": "uint256"
        }
      ],
      "name": "Transfer",
      "type": "event"
    },
    {
      "anonymous": false,
      "inputs": [
        {
          "indexed": false,
          "internalType": "address",
          "name": "account",
          "type": "address"
        }
      ],
      "name": "Unpaused",
      "type": "event"
    },
    {
      "inputs": [
        {
          "internalType": "address",
          "name": "to",
          "type": "address"
        },
        {
          "internalType": "uint256",
          "name": "tokenId",
          "type": "uint256"
        }
      ],
      "name": "approve",
      "outputs": [],
      "stateMutability": "nonpayable",
      "type": "function"
    },
    {
      "inputs": [
        {
          "internalType": "address",
          "name": "owner",
          "type": "address"
        }
      ],
      "name": "balanceOf",
      "outputs": [
        {
          "internalType": "uint256",
          "name": "",
          "type": "uint256"
        }
      ],
      "stateMutability": "view",
      "type": "function"
    },
    {
      "inputs": [
        {
          "internalType": "uint256",
          "name": "tokenId",
          "type": "uint256"
        }
      ],
      "name": "burn",
      "outputs": [],
      "stateMutability": "nonpayable",
      "type": "function"
    },
    {
      "inputs": [
        {
          "internalType": "uint256",
          "name": "tokenId",
          "type": "uint256"
        }
      ],
      "name": "getApproved",
      "outputs": [
        {
          "internalType": "address",
          "name": "",
          "type": "address"
        }
      ],
      "stateMutability": "view",
      "type": "function"
    },
    {
      "inputs": [
        {
          "internalType": "address",
          "name": "owner",
          "type": "address"
        },
        {
          "internalType": "address",
          "name": "operator",
          "type": "address"
        }
      ],
      "name": "isApprovedForAll",
      "outputs": [
        {
          "internalType": "bool",
          "name": "",
          "type": "bool"
        }
      ],
      "stateMutability": "view",
      "type": "function"
    },
    {
      "inputs": [],
      "name": "name",
      "outputs": [
        {
          "internalType": "string",
          "name": "",
          "type": "string"
        }
      ],
      "stateMutability": "view",
      "type": "function"
    },
    {
      "inputs": [],
      "name": "owner",
      "outputs": [
        {
          "internalType": "address",
          "name": "",
          "type": "address"
        }
      ],
      "stateMutability": "view",
      "type": "function"
    },
    {
      "inputs": [
        {
          "internalType": "uint256",
          "name": "tokenId",
          "type": "uint256"
        }
      ],
      "name": "ownerOf",
      "outputs": [
        {
          "internalType": "address",
          "name": "",
          "type": "address"
        }
      ],
      "stateMutability": "view",
      "type": "function"
    },
    {
      "inputs": [],
      "name": "paused",
      "outputs": [
        {
          "internalType": "bool",
          "name": "",
          "type": "bool"
        }
      ],
      "stateMutability": "view",
      "type": "function"
    },
    {
      "inputs": [],
      "name": "renounceOwnership",
      "outputs": [],
      "stateMutability": "nonpayable",
      "type": "function"
    },
    {
      "inputs": [
        {
          "internalType": "address",
          "name": "from",
          "type": "address"
        },
        {
          "internalType": "address",
          "name": "to",
          "type": "address"
        },
        {
          "internalType": "uint256",
          "name": "tokenId",
          "type": "uint256"
        }
      ],
      "name": "safeTransferFrom",
      "outputs": [],
      "stateMutability": "nonpayable",
      "type": "function"
    },
    {
      "inputs": [
        {
          "internalType": "address",
          "name": "from",
          "type": "address"
        },
        {
          "internalType": "address",
          "name": "to",
          "type": "address"
        },
        {
          "internalType": "uint256",
          "name": "tokenId",
          "type": "uint256"
        },
        {
          "internalType": "bytes",
          "name": "data",
          "type": "bytes"
        }
      ],
      "name": "safeTransferFrom",
      "outputs": [],
      "stateMutability": "nonpayable",
      "type": "function"
    },
    {
      "inputs": [
        {
          "internalType": "address",
          "name": "operator",
          "type": "address"
        },
        {
          "internalType": "bool",
          "name": "approved",
          "type": "bool"
        }
      ],
      "name": "setApprovalForAll",
      "outputs": [],
      "stateMutability": "nonpayable",
      "type": "function"
    },
    {
      "inputs": [],
      "name": "symbol",
      "outputs": [
        {
          "internalType": "string",
          "name": "",
          "type": "string"
        }
      ],
      "stateMutability": "view",
      "type": "function"
    },
    {
      "inputs": [
        {
          "internalType": "uint256",
          "name": "index",
          "type": "uint256"
        }
      ],
      "name": "tokenByIndex",
      "outputs": [
        {
          "internalType": "uint256",
          "name": "",
          "type": "uint256"
        }
      ],
      "stateMutability": "view",
      "type": "function"
    },
    {
      "inputs": [
        {
          "internalType": "address",
          "name": "owner",
          "type": "address"
        },
        {
          "internalType": "uint256",
          "name": "index",
          "type": "uint256"
        }
      ],
      "name": "tokenOfOwnerByIndex",
      "outputs": [
        {
          "internalType": "uint256",
          "name": "",
          "type": "uint256"
        }
      ],
      "stateMutability": "view",
      "type": "function"
    },
    {
      "inputs": [
        {
          "internalType": "uint256",
          "name": "tokenId",
          "type": "uint256"
        }
      ],
      "name": "tokenURI",
      "outputs": [
        {
          "internalType": "string",
          "name": "",
          "type": "string"
        }
      ],
      "stateMutability": "view",
      "type": "function"
    },
    {
      "inputs": [],
      "name": "totalSupply",
      "outputs": [
        {
          "internalType": "uint256",
          "name": "",
          "type": "uint256"
        }
      ],
      "stateMutability": "view",
      "type": "function"
    },
    {
      "inputs": [
        {
          "internalType": "address",
          "name": "from",
          "type": "address"
        },
        {
          "internalType": "address",
          "name": "to",
          "type": "address"
        },
        {
          "internalType": "uint256",
          "name": "tokenId",
          "type": "uint256"
        }
      ],
      "name": "transferFrom",
      "outputs": [],
      "stateMutability": "nonpayable",
      "type": "function"
    },
    {
      "inputs": [
        {
          "internalType": "address",
          "name": "newOwner",
          "type": "address"
        }
      ],
      "name": "transferOwnership",
      "outputs": [],
      "stateMutability": "nonpayable",
      "type": "function"
    },
    {
      "inputs": [],
      "name": "uriString",
      "outputs": [
        {
          "internalType": "string",
          "name": "",
          "type": "string"
        }
      ],
      "stateMutability": "view",
      "type": "function"
    },
    {
      "inputs": [
        {
          "internalType": "string",
          "name": "newString",
          "type": "string"
        }
      ],
      "name": "updateString",
      "outputs": [],
      "stateMutability": "nonpayable",
      "type": "function"
    },
    {
      "inputs": [],
      "name": "pause",
      "outputs": [],
      "stateMutability": "nonpayable",
      "type": "function"
    },
    {
      "inputs": [],
      "name": "unpause",
      "outputs": [],
      "stateMutability": "nonpayable",
      "type": "function"
    },
    {
      "inputs": [
        {
          "internalType": "address",
          "name": "to",
          "type": "address"
        }
      ],
      "name": "safeMint",
      "outputs": [],
      "stateMutability": "nonpayable",
      "type": "function"
    },
    {
      "inputs": [
        {
          "internalType": "bytes4",
          "name": "interfaceId",
          "type": "bytes4"
        }
      ],
      "name": "supportsInterface",
      "outputs": [
        {
          "internalType": "bool",
          "name": "",
          "type": "bool"
        }
      ],
      "stateMutability": "view",
      "type": "function"
    }
  ],
  "bytecode": "0x608060405234801562000010575f80fd5b50738b09d28def4deea3184cdba911d45de5a1e868746040518060400160405280600581526020017f6d79646f670000000000000000000000000000000000000000000000000000008152506040518060400160405280600481526020017f6375747500000000000000000000000000000000000000000000000000000000815250815f9081620000a2919062000484565b508060019081620000b4919062000484565b5050505f600a5f6101000a81548160ff0219169083151502179055505f73ffffffffffffffffffffffffffffffffffffffff168173ffffffffffffffffffffffffffffffffffffffff160362000143575f6040517f1e4fbdf70000000000000000000000000000000000000000000000000000000081526004016200013a9190620005ab565b60405180910390fd5b62000154816200015b60201b60201c565b50620005c6565b5f600a60019054906101000a900473ffffffffffffffffffffffffffffffffffffffff16905081600a60016101000a81548173ffffffffffffffffffffffffffffffffffffffff021916908373ffffffffffffffffffffffffffffffffffffffff1602179055508173ffffffffffffffffffffffffffffffffffffffff168173ffffffffffffffffffffffffffffffffffffffff167f8be0079c531659141344cd1fd0a4f28419497f9722a3daafe3b4186f6b6457e060405160405180910390a35050565b5f81519050919050565b7f4e487b71000000000000000000000000000000000000000000000000000000005f52604160045260245ffd5b7f4e487b71000000000000000000000000000000000000000000000000000000005f52602260045260245ffd5b5f60028204905060018216806200029c57607f821691505b602082108103620002b257620002b162000257565b5b50919050565b5f819050815f5260205f209050919050565b5f6020601f8301049050919050565b5f82821b905092915050565b5f60088302620003167fffffffffffffffffffffffffffffffffffffffffffffffffffffffffffffffff82620002d9565b620003228683620002d9565b95508019841693508086168417925050509392505050565b5f819050919050565b5f819050919050565b5f6200036c6200036662000360846200033a565b62000343565b6200033a565b9050919050565b5f819050919050565b62000387836200034c565b6200039f620003968262000373565b848454620002e5565b825550505050565b5f90565b620003b5620003a7565b620003c28184846200037c565b505050565b5b81811015620003e957620003dd5f82620003ab565b600181019050620003c8565b5050565b601f82111562000438576200040281620002b8565b6200040d84620002ca565b810160208510156200041d578190505b620004356200042c85620002ca565b830182620003c7565b50505b505050565b5f82821c905092915050565b5f6200045a5f19846008026200043d565b1980831691505092915050565b5f62000474838362000449565b9150826002028217905092915050565b6200048f8262000220565b67ffffffffffffffff811115620004ab57620004aa6200022a565b5b620004b7825462000284565b620004c4828285620003ed565b5f60209050601f831160018114620004fa575f8415620004e5578287015190505b620004f1858262000467565b86555062000560565b601f1984166200050a86620002b8565b5f5b8281101562000533578489015182556001820191506020850194506020810190506200050c565b868310156200055357848901516200054f601f89168262000449565b8355505b6001600288020188555050505b505050505050565b5f73ffffffffffffffffffffffffffffffffffffffff82169050919050565b5f620005938262000568565b9050919050565b620005a58162000587565b82525050565b5f602082019050620005c05f8301846200059a565b92915050565b612e3180620005d45f395ff3fe608060405234801561000f575f80fd5b506004361061018c575f3560e01c80635c975abb116100dc57806395d89b4111610095578063c3ccf4021161006f578063c3ccf40214610446578063c87b56dd14610462578063e985e9c514610492578063f2fde38b146104c25761018c565b806395d89b41146103f0578063a22cb4651461040e578063b88d4fde1461042a5761018c565b80635c975abb146103405780636352211e1461035e57806370a082311461038e578063715018a6146103be5780638456cb59146103c85780638da5cb5b146103d25761018c565b806323b872dd1161014957806340d097c31161012357806340d097c3146102bc57806342842e0e146102d857806342966c68146102f45780634f6ccce7146103105761018c565b806323b872dd146102665780632f745c59146102825780633f4ba83a146102b25761018c565b806301ffc9a71461019057806306fdde03146101c0578063081812fc146101de578063095ea7b31461020e5780631462b4311461022a57806318160ddd14610248575b5f80fd5b6101aa60048036038101906101a59190612270565b6104de565b6040516101b791906122b5565b60405180910390f35b6101c86104ef565b6040516101d59190612358565b60405180910390f35b6101f860048036038101906101f391906123ab565b61057e565b6040516102059190612415565b60405180910390f35b61022860048036038101906102239190612458565b610599565b005b6102326105af565b60405161023f9190612358565b60405180910390f35b61025061063b565b60405161025d91906124a5565b60405180910390f35b610280600480360381019061027b91906124be565b610647565b005b61029c60048036038101906102979190612458565b610746565b6040516102a991906124a5565b60405180910390f35b6102ba6107ea565b005b6102d660048036038101906102d1919061250e565b6107fc565b005b6102f260048036038101906102ed91906124be565b61082b565b005b61030e600480360381019061030991906123ab565b61084a565b005b61032a600480360381019061032591906123ab565b610860565b60405161033791906124a5565b60405180910390f35b6103486108d2565b60405161035591906122b5565b60405180910390f35b610378600480360381019061037391906123ab565b6108e7565b6040516103859190612415565b60405180910390f35b6103a860048036038101906103a3919061250e565b6108f8565b6040516103b591906124a5565b60405180910390f35b6103c66109ae565b005b6103d06109c1565b005b6103da6109d3565b6040516103e79190612415565b60405180910390f35b6103f86109fc565b6040516104059190612358565b60405180910390f35b61042860048036038101906104239190612563565b610a8c565b005b610444600480360381019061043f91906126cd565b610aa2565b005b610460600480360381019061045b91906127eb565b610abf565b005b61047c600480360381019061047791906123ab565b610ad2565b6040516104899190612358565b60405180910390f35b6104ac60048036038101906104a79190612832565b610b38565b6040516104b991906122b5565b60405180910390f35b6104dc60048036038101906104d7919061250e565b610bc6565b005b5f6104e882610c4a565b9050919050565b60605f80546104fd9061289d565b80601f01602080910402602001604051908101604052809291908181526020018280546105299061289d565b80156105745780601f1061054b57610100808354040283529160200191610574565b820191905f5260205f20905b81548152906001019060200180831161055757829003601f168201915b5050505050905090565b5f61058882610cc3565b5061059282610d49565b9050919050565b6105ab82826105a6610d82565b610d89565b5050565b600c80546105bc9061289d565b80601f01602080910402602001604051908101604052809291908181526020018280546105e89061289d565b80156106335780601f1061060a57610100808354040283529160200191610633565b820191905f5260205f20905b81548152906001019060200180831161061657829003601f168201915b505050505081565b5f600880549050905090565b5f73ffffffffffffffffffffffffffffffffffffffff168273ffffffffffffffffffffffffffffffffffffffff16036106b7575f6040517f64a0ae920000000000000000000000000000000000000000000000000000000081526004016106ae9190612415565b60405180910390fd5b5f6106ca83836106c5610d82565b610d9b565b90508373ffffffffffffffffffffffffffffffffffffffff168173ffffffffffffffffffffffffffffffffffffffff1614610740578382826040517f64283d7b000000000000000000000000000000000000000000000000000000008152600401610737939291906128cd565b60405180910390fd5b50505050565b5f610750836108f8565b82106107955782826040517fa57d13dc00000000000000000000000000000000000000000000000000000000815260040161078c929190612902565b60405180910390fd5b60065f8473ffffffffffffffffffffffffffffffffffffffff1673ffffffffffffffffffffffffffffffffffffffff1681526020019081526020015f205f8381526020019081526020015f2054905092915050565b6107f2610db0565b6107fa610e37565b565b610804610db0565b5f600b5f81548092919061081790612956565b9190505590506108278282610e98565b5050565b61084583838360405180602001604052805f815250610aa2565b505050565b61085c5f82610857610d82565b610d9b565b5050565b5f61086961063b565b82106108ae575f826040517fa57d13dc0000000000000000000000000000000000000000000000000000000081526004016108a5929190612902565b60405180910390fd5b600882815481106108c2576108c161299d565b5b905f5260205f2001549050919050565b5f600a5f9054906101000a900460ff16905090565b5f6108f182610cc3565b9050919050565b5f8073ffffffffffffffffffffffffffffffffffffffff168273ffffffffffffffffffffffffffffffffffffffff1603610969575f6040517f89c62b640000000000000000000000000000000000000000000000000000000081526004016109609190612415565b60405180910390fd5b60035f8373ffffffffffffffffffffffffffffffffffffffff1673ffffffffffffffffffffffffffffffffffffffff1681526020019081526020015f20549050919050565b6109b6610db0565b6109bf5f610eb5565b565b6109c9610db0565b6109d1610f7a565b565b5f600a60019054906101000a900473ffffffffffffffffffffffffffffffffffffffff16905090565b606060018054610a0b9061289d565b80601f0160208091040260200160405190810160405280929190818152602001828054610a379061289d565b8015610a825780601f10610a5957610100808354040283529160200191610a82565b820191905f5260205f20905b815481529060010190602001808311610a6557829003601f168201915b5050505050905090565b610a9e610a97610d82565b8383610fdc565b5050565b610aad848484610647565b610ab984848484611145565b50505050565b80600c9081610ace9190612b67565b5050565b6060610add82610cc3565b505f610ae76112f7565b90505f815111610b055760405180602001604052805f815250610b30565b80610b0f84611387565b604051602001610b20929190612c70565b6040516020818303038152906040525b915050919050565b5f60055f8473ffffffffffffffffffffffffffffffffffffffff1673ffffffffffffffffffffffffffffffffffffffff1681526020019081526020015f205f8373ffffffffffffffffffffffffffffffffffffffff1673ffffffffffffffffffffffffffffffffffffffff1681526020019081526020015f205f9054906101000a900460ff16905092915050565b610bce610db0565b5f73ffffffffffffffffffffffffffffffffffffffff168173ffffffffffffffffffffffffffffffffffffffff1603610c3e575f6040517f1e4fbdf7000000000000000000000000000000000000000000000000000000008152600401610c359190612415565b60405180910390fd5b610c4781610eb5565b50565b5f7f780e9d63000000000000000000000000000000000000000000000000000000007bffffffffffffffffffffffffffffffffffffffffffffffffffffffff1916827bffffffffffffffffffffffffffffffffffffffffffffffffffffffff19161480610cbc5750610cbb82611451565b5b9050919050565b5f80610cce83611532565b90505f73ffffffffffffffffffffffffffffffffffffffff168173ffffffffffffffffffffffffffffffffffffffff1603610d4057826040517f7e273289000000000000000000000000000000000000000000000000000000008152600401610d3791906124a5565b60405180910390fd5b80915050919050565b5f60045f8381526020019081526020015f205f9054906101000a900473ffffffffffffffffffffffffffffffffffffffff169050919050565b5f33905090565b610d96838383600161156b565b505050565b5f610da784848461172a565b90509392505050565b610db8610d82565b73ffffffffffffffffffffffffffffffffffffffff16610dd66109d3565b73ffffffffffffffffffffffffffffffffffffffff1614610e3557610df9610d82565b6040517f118cdaa7000000000000000000000000000000000000000000000000000000008152600401610e2c9190612415565b60405180910390fd5b565b610e3f611747565b5f600a5f6101000a81548160ff0219169083151502179055507f5db9ee0a495bf2e6ff9c91a7834c1ba4fdd244a5e8aa4e537bd38aeae4b073aa610e81610d82565b604051610e8e9190612415565b60405180910390a1565b610eb1828260405180602001604052805f815250611787565b5050565b5f600a60019054906101000a900473ffffffffffffffffffffffffffffffffffffffff16905081600a60016101000a81548173ffffffffffffffffffffffffffffffffffffffff021916908373ffffffffffffffffffffffffffffffffffffffff1602179055508173ffffffffffffffffffffffffffffffffffffffff168173ffffffffffffffffffffffffffffffffffffffff167f8be0079c531659141344cd1fd0a4f28419497f9722a3daafe3b4186f6b6457e060405160405180910390a35050565b610f826117a2565b6001600a5f6101000a81548160ff0219169083151502179055507f62e78cea01bee320cd4e420270b5ea74000d11b0c9f74754ebdbfc544b05a258610fc5610d82565b604051610fd29190612415565b60405180910390a1565b5f73ffffffffffffffffffffffffffffffffffffffff168273ffffffffffffffffffffffffffffffffffffffff160361104c57816040517f5b08ba180000000000000000000000000000000000000000000000000000000081526004016110439190612415565b60405180910390fd5b8060055f8573ffffffffffffffffffffffffffffffffffffffff1673ffffffffffffffffffffffffffffffffffffffff1681526020019081526020015f205f8473ffffffffffffffffffffffffffffffffffffffff1673ffffffffffffffffffffffffffffffffffffffff1681526020019081526020015f205f6101000a81548160ff0219169083151502179055508173ffffffffffffffffffffffffffffffffffffffff168373ffffffffffffffffffffffffffffffffffffffff167f17307eab39ab6107e8899845ad3d59bd9653f200f220920489ca2b5937696c318360405161113891906122b5565b60405180910390a3505050565b5f8373ffffffffffffffffffffffffffffffffffffffff163b11156112f1578273ffffffffffffffffffffffffffffffffffffffff1663150b7a02611188610d82565b8685856040518563ffffffff1660e01b81526004016111aa9493929190612ce5565b6020604051808303815f875af19250505080156111e557506040513d601f19601f820116820180604052508101906111e29190612d43565b60015b611266573d805f8114611213576040519150601f19603f3d011682016040523d82523d5f602084013e611218565b606091505b505f81510361125e57836040517f64a0ae920000000000000000000000000000000000000000000000000000000081526004016112559190612415565b60405180910390fd5b805181602001fd5b63150b7a0260e01b7bffffffffffffffffffffffffffffffffffffffffffffffffffffffff1916817bffffffffffffffffffffffffffffffffffffffffffffffffffffffff1916146112ef57836040517f64a0ae920000000000000000000000000000000000000000000000000000000081526004016112e69190612415565b60405180910390fd5b505b50505050565b6060600c80546113069061289d565b80601f01602080910402602001604051908101604052809291908181526020018280546113329061289d565b801561137d5780601f106113545761010080835404028352916020019161137d565b820191905f5260205f20905b81548152906001019060200180831161136057829003601f168201915b5050505050905090565b60605f6001611395846117e3565b0190505f8167ffffffffffffffff8111156113b3576113b26125a9565b5b6040519080825280601f01601f1916602001820160405280156113e55781602001600182028036833780820191505090505b5090505f82602001820190505b600115611446578080600190039150507f3031323334353637383961626364656600000000000000000000000000000000600a86061a8153600a858161143b5761143a612d6e565b5b0494505f85036113f2575b819350505050919050565b5f7f80ac58cd000000000000000000000000000000000000000000000000000000007bffffffffffffffffffffffffffffffffffffffffffffffffffffffff1916827bffffffffffffffffffffffffffffffffffffffffffffffffffffffff1916148061151b57507f5b5e139f000000000000000000000000000000000000000000000000000000007bffffffffffffffffffffffffffffffffffffffffffffffffffffffff1916827bffffffffffffffffffffffffffffffffffffffffffffffffffffffff1916145b8061152b575061152a82611934565b5b9050919050565b5f60025f8381526020019081526020015f205f9054906101000a900473ffffffffffffffffffffffffffffffffffffffff169050919050565b80806115a357505f73ffffffffffffffffffffffffffffffffffffffff168273ffffffffffffffffffffffffffffffffffffffff1614155b156116d5575f6115b284610cc3565b90505f73ffffffffffffffffffffffffffffffffffffffff168373ffffffffffffffffffffffffffffffffffffffff161415801561161c57508273ffffffffffffffffffffffffffffffffffffffff168173ffffffffffffffffffffffffffffffffffffffff1614155b801561162f575061162d8184610b38565b155b1561167157826040517fa9fbf51f0000000000000000000000000000000000000000000000000000000081526004016116689190612415565b60405180910390fd5b81156116d357838573ffffffffffffffffffffffffffffffffffffffff168273ffffffffffffffffffffffffffffffffffffffff167f8c5be1e5ebec7d5bd14f71427d1e84f3dd0314c0f7b2291e5b200ac8c7c3b92560405160405180910390a45b505b8360045f8581526020019081526020015f205f6101000a81548173ffffffffffffffffffffffffffffffffffffffff021916908373ffffffffffffffffffffffffffffffffffffffff16021790555050505050565b5f6117336117a2565b61173e84848461199d565b90509392505050565b61174f6108d2565b611785576040517f8dfc202b00000000000000000000000000000000000000000000000000000000815260040160405180910390fd5b565b6117918383611ab7565b61179d5f848484611145565b505050565b6117aa6108d2565b156117e1576040517fd93c066500000000000000000000000000000000000000000000000000000000815260040160405180910390fd5b565b5f805f90507a184f03e93ff9f4daa797ed6e38ed64bf6a1f010000000000000000831061183f577a184f03e93ff9f4daa797ed6e38ed64bf6a1f010000000000000000838161183557611834612d6e565b5b0492506040810190505b6d04ee2d6d415b85acef8100000000831061187c576d04ee2d6d415b85acef8100000000838161187257611871612d6e565b5b0492506020810190505b662386f26fc1000083106118ab57662386f26fc1000083816118a1576118a0612d6e565b5b0492506010810190505b6305f5e10083106118d4576305f5e10083816118ca576118c9612d6e565b5b0492506008810190505b61271083106118f95761271083816118ef576118ee612d6e565b5b0492506004810190505b6064831061191c576064838161191257611911612d6e565b5b0492506002810190505b600a831061192b576001810190505b80915050919050565b5f7f01ffc9a7000000000000000000000000000000000000000000000000000000007bffffffffffffffffffffffffffffffffffffffffffffffffffffffff1916827bffffffffffffffffffffffffffffffffffffffffffffffffffffffff1916149050919050565b5f806119aa858585611baa565b90505f73ffffffffffffffffffffffffffffffffffffffff168173ffffffffffffffffffffffffffffffffffffffff16036119ed576119e884611db5565b611a2c565b8473ffffffffffffffffffffffffffffffffffffffff168173ffffffffffffffffffffffffffffffffffffffff1614611a2b57611a2a8185611df9565b5b5b5f73ffffffffffffffffffffffffffffffffffffffff168573ffffffffffffffffffffffffffffffffffffffff1603611a6d57611a6884611f43565b611aac565b8473ffffffffffffffffffffffffffffffffffffffff168173ffffffffffffffffffffffffffffffffffffffff1614611aab57611aaa8585612003565b5b5b809150509392505050565b5f73ffffffffffffffffffffffffffffffffffffffff168273ffffffffffffffffffffffffffffffffffffffff1603611b27575f6040517f64a0ae92000000000000000000000000000000000000000000000000000000008152600401611b1e9190612415565b60405180910390fd5b5f611b3383835f610d9b565b90505f73ffffffffffffffffffffffffffffffffffffffff168173ffffffffffffffffffffffffffffffffffffffff1614611ba5575f6040517f73c6ac6e000000000000000000000000000000000000000000000000000000008152600401611b9c9190612415565b60405180910390fd5b505050565b5f80611bb584611532565b90505f73ffffffffffffffffffffffffffffffffffffffff168373ffffffffffffffffffffffffffffffffffffffff1614611bf657611bf5818486612087565b5b5f73ffffffffffffffffffffffffffffffffffffffff168173ffffffffffffffffffffffffffffffffffffffff1614611c8157611c355f855f8061156b565b600160035f8373ffffffffffffffffffffffffffffffffffffffff1673ffffffffffffffffffffffffffffffffffffffff1681526020019081526020015f205f82825403925050819055505b5f73ffffffffffffffffffffffffffffffffffffffff168573ffffffffffffffffffffffffffffffffffffffff1614611d0057600160035f8773ffffffffffffffffffffffffffffffffffffffff1673ffffffffffffffffffffffffffffffffffffffff1681526020019081526020015f205f82825401925050819055505b8460025f8681526020019081526020015f205f6101000a81548173ffffffffffffffffffffffffffffffffffffffff021916908373ffffffffffffffffffffffffffffffffffffffff160217905550838573ffffffffffffffffffffffffffffffffffffffff168273ffffffffffffffffffffffffffffffffffffffff167fddf252ad1be2c89b69c2b068fc378daa952ba7f163c4a11628f55a4df523b3ef60405160405180910390a4809150509392505050565b60088054905060095f8381526020019081526020015f2081905550600881908060018154018082558091505060019003905f5260205f20015f909190919091505550565b5f611e03836108f8565b90505f60075f8481526020019081526020015f20549050818114611eda575f60065f8673ffffffffffffffffffffffffffffffffffffffff1673ffffffffffffffffffffffffffffffffffffffff1681526020019081526020015f205f8481526020019081526020015f205490508060065f8773ffffffffffffffffffffffffffffffffffffffff1673ffffffffffffffffffffffffffffffffffffffff1681526020019081526020015f205f8481526020019081526020015f20819055508160075f8381526020019081526020015f2081905550505b60075f8481526020019081526020015f205f905560065f8573ffffffffffffffffffffffffffffffffffffffff1673ffffffffffffffffffffffffffffffffffffffff1681526020019081526020015f205f8381526020019081526020015f205f905550505050565b5f6001600880549050611f569190612d9b565b90505f60095f8481526020019081526020015f205490505f60088381548110611f8257611f8161299d565b5b905f5260205f20015490508060088381548110611fa257611fa161299d565b5b905f5260205f2001819055508160095f8381526020019081526020015f208190555060095f8581526020019081526020015f205f90556008805480611fea57611fe9612dce565b5b600190038181905f5260205f20015f9055905550505050565b5f600161200f846108f8565b6120199190612d9b565b90508160065f8573ffffffffffffffffffffffffffffffffffffffff1673ffffffffffffffffffffffffffffffffffffffff1681526020019081526020015f205f8381526020019081526020015f20819055508060075f8481526020019081526020015f2081905550505050565b61209283838361214a565b612145575f73ffffffffffffffffffffffffffffffffffffffff168373ffffffffffffffffffffffffffffffffffffffff160361210657806040517f7e2732890000000000000000000000000000000000000000000000000000000081526004016120fd91906124a5565b60405180910390fd5b81816040517f177e802f00000000000000000000000000000000000000000000000000000000815260040161213c929190612902565b60405180910390fd5b505050565b5f8073ffffffffffffffffffffffffffffffffffffffff168373ffffffffffffffffffffffffffffffffffffffff161415801561220157508273ffffffffffffffffffffffffffffffffffffffff168473ffffffffffffffffffffffffffffffffffffffff1614806121c257506121c18484610b38565b5b8061220057508273ffffffffffffffffffffffffffffffffffffffff166121e883610d49565b73ffffffffffffffffffffffffffffffffffffffff16145b5b90509392505050565b5f604051905090565b5f80fd5b5f80fd5b5f7fffffffff0000000000000000000000000000000000000000000000000000000082169050919050565b61224f8161221b565b8114612259575f80fd5b50565b5f8135905061226a81612246565b92915050565b5f6020828403121561228557612284612213565b5b5f6122928482850161225c565b91505092915050565b5f8115159050919050565b6122af8161229b565b82525050565b5f6020820190506122c85f8301846122a6565b92915050565b5f81519050919050565b5f82825260208201905092915050565b5f5b838110156123055780820151818401526020810190506122ea565b5f8484015250505050565b5f601f19601f8301169050919050565b5f61232a826122ce565b61233481856122d8565b93506123448185602086016122e8565b61234d81612310565b840191505092915050565b5f6020820190508181035f8301526123708184612320565b905092915050565b5f819050919050565b61238a81612378565b8114612394575f80fd5b50565b5f813590506123a581612381565b92915050565b5f602082840312156123c0576123bf612213565b5b5f6123cd84828501612397565b91505092915050565b5f73ffffffffffffffffffffffffffffffffffffffff82169050919050565b5f6123ff826123d6565b9050919050565b61240f816123f5565b82525050565b5f6020820190506124285f830184612406565b92915050565b612437816123f5565b8114612441575f80fd5b50565b5f813590506124528161242e565b92915050565b5f806040838503121561246e5761246d612213565b5b5f61247b85828601612444565b925050602061248c85828601612397565b9150509250929050565b61249f81612378565b82525050565b5f6020820190506124b85f830184612496565b92915050565b5f805f606084860312156124d5576124d4612213565b5b5f6124e286828701612444565b93505060206124f386828701612444565b925050604061250486828701612397565b9150509250925092565b5f6020828403121561252357612522612213565b5b5f61253084828501612444565b91505092915050565b6125428161229b565b811461254c575f80fd5b50565b5f8135905061255d81612539565b92915050565b5f806040838503121561257957612578612213565b5b5f61258685828601612444565b92505060206125978582860161254f565b9150509250929050565b5f80fd5b5f80fd5b7f4e487b71000000000000000000000000000000000000000000000000000000005f52604160045260245ffd5b6125df82612310565b810181811067ffffffffffffffff821117156125fe576125fd6125a9565b5b80604052505050565b5f61261061220a565b905061261c82826125d6565b919050565b5f67ffffffffffffffff82111561263b5761263a6125a9565b5b61264482612310565b9050602081019050919050565b828183375f83830152505050565b5f61267161266c84612621565b612607565b90508281526020810184848401111561268d5761268c6125a5565b5b612698848285612651565b509392505050565b5f82601f8301126126b4576126b36125a1565b5b81356126c484826020860161265f565b91505092915050565b5f805f80608085870312156126e5576126e4612213565b5b5f6126f287828801612444565b945050602061270387828801612444565b935050604061271487828801612397565b925050606085013567ffffffffffffffff81111561273557612734612217565b5b612741878288016126a0565b91505092959194509250565b5f67ffffffffffffffff821115612767576127666125a9565b5b61277082612310565b9050602081019050919050565b5f61278f61278a8461274d565b612607565b9050828152602081018484840111156127ab576127aa6125a5565b5b6127b6848285612651565b509392505050565b5f82601f8301126127d2576127d16125a1565b5b81356127e284826020860161277d565b91505092915050565b5f60208284031215612800576127ff612213565b5b5f82013567ffffffffffffffff81111561281d5761281c612217565b5b612829848285016127be565b91505092915050565b5f806040838503121561284857612847612213565b5b5f61285585828601612444565b925050602061286685828601612444565b9150509250929050565b7f4e487b71000000000000000000000000000000000000000000000000000000005f52602260045260245ffd5b5f60028204905060018216806128b457607f821691505b6020821081036128c7576128c6612870565b5b50919050565b5f6060820190506128e05f830186612406565b6128ed6020830185612496565b6128fa6040830184612406565b949350505050565b5f6040820190506129155f830185612406565b6129226020830184612496565b9392505050565b7f4e487b71000000000000000000000000000000000000000000000000000000005f52601160045260245ffd5b5f61296082612378565b91507fffffffffffffffffffffffffffffffffffffffffffffffffffffffffffffffff820361299257612991612929565b5b600182019050919050565b7f4e487b71000000000000000000000000000000000000000000000000000000005f52603260045260245ffd5b5f819050815f5260205f209050919050565b5f6020601f8301049050919050565b5f82821b905092915050565b5f60088302612a267fffffffffffffffffffffffffffffffffffffffffffffffffffffffffffffffff826129eb565b612a3086836129eb565b95508019841693508086168417925050509392505050565b5f819050919050565b5f612a6b612a66612a6184612378565b612a48565b612378565b9050919050565b5f819050919050565b612a8483612a51565b612a98612a9082612a72565b8484546129f7565b825550505050565b5f90565b612aac612aa0565b612ab7818484612a7b565b505050565b5b81811015612ada57612acf5f82612aa4565b600181019050612abd565b5050565b601f821115612b1f57612af0816129ca565b612af9846129dc565b81016020851015612b08578190505b612b1c612b14856129dc565b830182612abc565b50505b505050565b5f82821c905092915050565b5f612b3f5f1984600802612b24565b1980831691505092915050565b5f612b578383612b30565b9150826002028217905092915050565b612b70826122ce565b67ffffffffffffffff811115612b8957612b886125a9565b5b612b93825461289d565b612b9e828285612ade565b5f60209050601f831160018114612bcf575f8415612bbd578287015190505b612bc78582612b4c565b865550612c2e565b601f198416612bdd866129ca565b5f5b82811015612c0457848901518255600182019150602085019450602081019050612bdf565b86831015612c215784890151612c1d601f891682612b30565b8355505b6001600288020188555050505b505050505050565b5f81905092915050565b5f612c4a826122ce565b612c548185612c36565b9350612c648185602086016122e8565b80840191505092915050565b5f612c7b8285612c40565b9150612c878284612c40565b91508190509392505050565b5f81519050919050565b5f82825260208201905092915050565b5f612cb782612c93565b612cc18185612c9d565b9350612cd18185602086016122e8565b612cda81612310565b840191505092915050565b5f608082019050612cf85f830187612406565b612d056020830186612406565b612d126040830185612496565b8181036060830152612d248184612cad565b905095945050505050565b5f81519050612d3d81612246565b92915050565b5f60208284031215612d5857612d57612213565b5b5f612d6584828501612d2f565b91505092915050565b7f4e487b71000000000000000000000000000000000000000000000000000000005f52601260045260245ffd5b5f612da582612378565b9150612db083612378565b9250828203905081811115612dc857612dc7612929565b5b92915050565b7f4e487b71000000000000000000000000000000000000000000000000000000005f52603160045260245ffdfea2646970667358221220f98cf3f78c81a83d7c5862d080c335434421ca5f947fdeb8c0ae692b8de7c99564736f6c63430008140033",
  "immutableReferences": {},
  "source": "// SPDX-License-Identifier: MIT\npragma solidity ^0.8.20;\n\nimport \"@openzeppelin/contracts/token/ERC721/ERC721.sol\";\nimport \"@openzeppelin/contracts/token/ERC721/extensions/ERC721Enumerable.sol\";\nimport \"@openzeppelin/contracts/token/ERC721/extensions/ERC721Pausable.sol\";\nimport \"@openzeppelin/contracts/access/Ownable.sol\";\nimport \"@openzeppelin/contracts/token/ERC721/extensions/ERC721Burnable.sol\";\n\n/// @custom:securixty-contact sec@gmail.com\ncontract Mydog is ERC721, ERC721Enumerable, ERC721Pausable, Ownable, ERC721Burnable {\n    uint256 private _nextTokenId;\n\n    constructor()\n        ERC721(\"mydog\", \"cutu\")\n        Ownable(0x8B09D28deF4dEea3184CDba911d45de5a1e86874)\n    {}\n    \n    string public uriString;\n\n    function updateString(string memory newString) public {\n        uriString = newString;\n    }\n    function _baseURI() internal view override returns (string memory) {\n        return uriString;\n    }\n\n    function pause() public onlyOwner {\n        _pause();\n    }\n\n    function unpause() public onlyOwner {\n        _unpause();\n    }\n\n    function safeMint(address to) public onlyOwner {\n        // require(msg.value == paid ,\"incorrect funds processed\");\n        // require(msg.value == paid,\"incorrect funds processed\")\n        uint256 tokenId = _nextTokenId++;\n        _safeMint(to, tokenId);\n    }\n\n    // The following functions are overrides required by Solidity.\n\n    function _update(address to, uint256 tokenId, address auth)\n        internal\n        override(ERC721, ERC721Enumerable, ERC721Pausable)\n        returns (address)\n    {\n        return super._update(to, tokenId, auth);\n    }\n\n    function _increaseBalance(address account, uint128 value)\n        internal\n        override(ERC721, ERC721Enumerable)\n    {\n        super._increaseBalance(account, value);\n    }\n\n    function supportsInterface(bytes4 interfaceId)\n        public\n        view\n        override(ERC721, ERC721Enumerable)\n        returns (bool)\n    {\n        return super.supportsInterface(interfaceId);\n    }\n}",
  "sourcePath": "D:\\HackCBS\\tuffle\\contracts\\HelloWorld.sol",
  "compiler": {
    "name": "solc",
    "version": "0.8.20+commit.a1b79de6.Emscripten.clang"
  },
  "schemaVersion": "3.4.16",
  "updatedAt": "2023-11-04T18:51:57.816Z",
  "devdoc": {
    "custom:securixty-contact": "sec@gmail.com",
    "errors": {
      "ERC721EnumerableForbiddenBatchMint()": [
        {
          "details": "Batch mint is not allowed."
        }
      ],
      "ERC721IncorrectOwner(address,uint256,address)": [
        {
          "details": "Indicates an error related to the ownership over a particular token. Used in transfers.",
          "params": {
            "owner": "Address of the current owner of a token.",
            "sender": "Address whose tokens are being transferred.",
            "tokenId": "Identifier number of a token."
          }
        }
      ],
      "ERC721InsufficientApproval(address,uint256)": [
        {
          "details": "Indicates a failure with the `operator`s approval. Used in transfers.",
          "params": {
            "operator": "Address that may be allowed to operate on tokens without being their owner.",
            "tokenId": "Identifier number of a token."
          }
        }
      ],
      "ERC721InvalidApprover(address)": [
        {
          "details": "Indicates a failure with the `approver` of a token to be approved. Used in approvals.",
          "params": {
            "approver": "Address initiating an approval operation."
          }
        }
      ],
      "ERC721InvalidOperator(address)": [
        {
          "details": "Indicates a failure with the `operator` to be approved. Used in approvals.",
          "params": {
            "operator": "Address that may be allowed to operate on tokens without being their owner."
          }
        }
      ],
      "ERC721InvalidOwner(address)": [
        {
          "details": "Indicates that an address can't be an owner. For example, `address(0)` is a forbidden owner in EIP-20. Used in balance queries.",
          "params": {
            "owner": "Address of the current owner of a token."
          }
        }
      ],
      "ERC721InvalidReceiver(address)": [
        {
          "details": "Indicates a failure with the token `receiver`. Used in transfers.",
          "params": {
            "receiver": "Address to which tokens are being transferred."
          }
        }
      ],
      "ERC721InvalidSender(address)": [
        {
          "details": "Indicates a failure with the token `sender`. Used in transfers.",
          "params": {
            "sender": "Address whose tokens are being transferred."
          }
        }
      ],
      "ERC721NonexistentToken(uint256)": [
        {
          "details": "Indicates a `tokenId` whose `owner` is the zero address.",
          "params": {
            "tokenId": "Identifier number of a token."
          }
        }
      ],
      "ERC721OutOfBoundsIndex(address,uint256)": [
        {
          "details": "An `owner`'s token query was out of bounds for `index`. NOTE: The owner being `address(0)` indicates a global out of bounds index."
        }
      ],
      "EnforcedPause()": [
        {
          "details": "The operation failed because the contract is paused."
        }
      ],
      "ExpectedPause()": [
        {
          "details": "The operation failed because the contract is not paused."
        }
      ],
      "OwnableInvalidOwner(address)": [
        {
          "details": "The owner is not a valid owner account. (eg. `address(0)`)"
        }
      ],
      "OwnableUnauthorizedAccount(address)": [
        {
          "details": "The caller account is not authorized to perform an operation."
        }
      ]
    },
    "events": {
      "Approval(address,address,uint256)": {
        "details": "Emitted when `owner` enables `approved` to manage the `tokenId` token."
      },
      "ApprovalForAll(address,address,bool)": {
        "details": "Emitted when `owner` enables or disables (`approved`) `operator` to manage all of its assets."
      },
      "Paused(address)": {
        "details": "Emitted when the pause is triggered by `account`."
      },
      "Transfer(address,address,uint256)": {
        "details": "Emitted when `tokenId` token is transferred from `from` to `to`."
      },
      "Unpaused(address)": {
        "details": "Emitted when the pause is lifted by `account`."
      }
    },
    "kind": "dev",
    "methods": {
      "approve(address,uint256)": {
        "details": "See {IERC721-approve}."
      },
      "balanceOf(address)": {
        "details": "See {IERC721-balanceOf}."
      },
      "burn(uint256)": {
        "details": "Burns `tokenId`. See {ERC721-_burn}. Requirements: - The caller must own `tokenId` or be an approved operator."
      },
      "getApproved(uint256)": {
        "details": "See {IERC721-getApproved}."
      },
      "isApprovedForAll(address,address)": {
        "details": "See {IERC721-isApprovedForAll}."
      },
      "name()": {
        "details": "See {IERC721Metadata-name}."
      },
      "owner()": {
        "details": "Returns the address of the current owner."
      },
      "ownerOf(uint256)": {
        "details": "See {IERC721-ownerOf}."
      },
      "paused()": {
        "details": "Returns true if the contract is paused, and false otherwise."
      },
      "renounceOwnership()": {
        "details": "Leaves the contract without owner. It will not be possible to call `onlyOwner` functions. Can only be called by the current owner. NOTE: Renouncing ownership will leave the contract without an owner, thereby disabling any functionality that is only available to the owner."
      },
      "safeTransferFrom(address,address,uint256)": {
        "details": "See {IERC721-safeTransferFrom}."
      },
      "safeTransferFrom(address,address,uint256,bytes)": {
        "details": "See {IERC721-safeTransferFrom}."
      },
      "setApprovalForAll(address,bool)": {
        "details": "See {IERC721-setApprovalForAll}."
      },
      "symbol()": {
        "details": "See {IERC721Metadata-symbol}."
      },
      "tokenByIndex(uint256)": {
        "details": "See {IERC721Enumerable-tokenByIndex}."
      },
      "tokenOfOwnerByIndex(address,uint256)": {
        "details": "See {IERC721Enumerable-tokenOfOwnerByIndex}."
      },
      "tokenURI(uint256)": {
        "details": "See {IERC721Metadata-tokenURI}."
      },
      "totalSupply()": {
        "details": "See {IERC721Enumerable-totalSupply}."
      },
      "transferFrom(address,address,uint256)": {
        "details": "See {IERC721-transferFrom}."
      },
      "transferOwnership(address)": {
        "details": "Transfers ownership of the contract to a new account (`newOwner`). Can only be called by the current owner."
      }
    },
    "version": 1
  },
  "userdoc": {
    "kind": "user",
    "methods": {},
    "version": 1
  }
}